:020000040000fa
:080000000001040000000000f3
:020000040000fa
:0400080020020000d2
:020000040000fa
:04000c0020020000ce
:020000040000fa
:0400100020020000ca
:020000040000fa
:0400140020020000c6
:020000040000fa
:0400180020020000c2
:020000040000fa
:04001c0020020000be
:020000040000fa
:0400200020020000ba
:020000040000fa
:0400240020020000b6
:020000040000fa
:04002800f4010000df
:020000040000fa
:04002c0020020000ae
:020000040000fa
:0400300020020000aa
:020000040000fa
:04003400c8010000ff
:020000040000fa
:0400380020020000a2
:020000040000fa
:04003c00200200009e
:020000040000fa
:04004000200200009a
:020000040000fa
:040044002002000096
:020000040000fa
:040048002002000092
:020000040000fa
:04004c00200200008e
:020000040000fa
:04005000200200008a
:020000040000fa
:040054002002000086
:020000040000fa
:040058002002000082
:020000040000fa
:04005c00200200007e
:020000040000fa
:04006000200200007a
:020000040000fa
:040064002002000076
:020000040000fa
:040068002002000072
:020000040000fa
:04006c00200200006e
:020000040000fa
:04007000200200006a
:020000040000fa
:040074002002000066
:020000040000fa
:040078002002000062
:020000040000fa
:04007c00200200005e
:020000040000fa
:04008000200200005a
:020000040000fa
:040084002002000056
:020000040000fa
:040088002002000052
:020000040000fa
:04008c00200200004e
:020000040000fa
:04009000200200004a
:020000040000fa
:040094002002000046
:020000040000fa
:040098002002000042
:020000040000fa
:04009c00200200003e
:020000040000fa
:0400a000200200003a
:020000040000fa
:0400a4002002000036
:020000040000fa
:0400a8002002000032
:020000040000fa
:0400ac00200200002e
:020000040000fa
:0400b000200200002a
:020000040000fa
:0400b4002002000026
:020000040000fa
:0400b8002002000022
:020000040000fa
:0400bc00200200001e
:020000040000fa
:0400c000200200001a
:020000040000fa
:0400c4002002000016
:020000040000fa
:0400c8002002000012
:020000040000fa
:0400cc00200200000e
:020000040000fa
:0400d000200200000a
:020000040000fa
:0400d4002002000006
:020000040000fa
:0400d8002002000002
:020000040000fa
:0401080020020000d1
:020000040000fa
:04010c0020020000cd
:020000040000fa
:0401100020020000c9
:020000040000fa
:0401140020020000c5
:020000040000fa
:0401180020020000c1
:020000040000fa
:04011c0020020000bd
:020000040000fa
:0401200020020000b9
:020000040000fa
:0401240020020000b5
:020000040000fa
:04012800f4010000de
:020000040000fa
:04012c0020020000ad
:020000040000fa
:0401300020020000a9
:020000040000fa
:04013400c8010000fe
:020000040000fa
:0401380020020000a1
:020000040000fa
:04013c00200200009d
:020000040000fa
:040140002002000099
:020000040000fa
:040144002002000095
:020000040000fa
:040148002002000091
:020000040000fa
:04014c00200200008d
:020000040000fa
:040150002002000089
:020000040000fa
:040154002002000085
:020000040000fa
:040158002002000081
:020000040000fa
:04015c00200200007d
:020000040000fa
:040160002002000079
:020000040000fa
:040164002002000075
:020000040000fa
:040168002002000071
:020000040000fa
:04016c00200200006d
:020000040000fa
:040170002002000069
:020000040000fa
:040174002002000065
:020000040000fa
:040178002002000061
:020000040000fa
:04017c00200200005d
:020000040000fa
:040180002002000059
:020000040000fa
:040184002002000055
:020000040000fa
:040188002002000051
:020000040000fa
:04018c00200200004d
:020000040000fa
:040190002002000049
:020000040000fa
:040194002002000045
:020000040000fa
:040198002002000041
:020000040000fa
:04019c00200200003d
:020000040000fa
:0401a0002002000039
:020000040000fa
:0401a4002002000035
:020000040000fa
:0401a8002002000031
:020000040000fa
:0401ac00200200002d
:020000040000fa
:0401b0002002000029
:020000040000fa
:0401b4002002000025
:020000040000fa
:0401b8002002000021
:020000040000fa
:0401bc00200200001d
:020000040000fa
:0401c0002002000019
:020000040000fa
:0401c4002002000015
:020000040000fa
:0401c8002002000011
:020000040000fa
:0401cc00200200000d
:020000040000fa
:0401d0002002000009
:020000040000fa
:0401d4002002000005
:020000040000fa
:0401d8002002000001
:020000040000fa
:100200002f8020000eff20000e018800000000005b
:10021000000020000000e000020032000001200089
:100220002002880014000700870007000000e0009b
:1002300003003a00a0b320000100200002003700b4
:100240000000200001002000810f7000010032003a
:1002500014000700000020000000e000020032004f
:100260000000020000000000ca0a020000000000b6
:100270000040da000000fe004440a9000000200019
:100280000000e0000300320000002000a001880010
:100290004440a800000006008a1f78008b1f7800e9
:1002a0000000060091018800800478000000eb0047
:1002b0001a003700e284440032a0b4009905ba0065
:1002c000e284440032a0b4009906ba00e2844400fb
:1002d00032a0b4000006eb00476fde00fd07b2005d
:1002e000636ce10003003a00ebff07000000eb0045
:1002f0000a003700606ce10004003a00005deb008a
:100300008b05e900fdff3e00040037006168e10055
:10031000010032000086eb000b00070019c7ba008d
:100320001905ba000e04e00003003a000a00e000dc
:10033000e0ff3a0000000600fe07b2009e018800c0
:100340008a047800f5ff3700395dba008b05e900b3
:100350000c003200295dba008b05e900080032006c
:100360000c00e00003003a00e284440032a0b40034
:10037000f5ff370019ddba008b05e900faff3a00f6
:100380008904e800e184440032a0b40000000600c3
:10039000809fbe003400f80000002000a00188000b
:1003a0000000fa008460a900501680000000d1000f
:1003b000614060000004a200614060000080fb001a
:1003c0006100600000004000511680000110a10093
:1003d00001007000501688000080fa003400f90017
:1003e0004f00be0000400600809fbe003400f800b1
:1003f00000002000a00188000000fa008400a9008d
:10040000501680000000d100614060000004a2008e
:10041000614060000080fb0061006000000040005f
:10042000511680000110a1000100700050168800d4
:100430000080fa003400f9004f00be0000400600c2
:100440000040da000000fe0000000500140020005b
:100450009c023700f4ff2f009a0237000001be0013
:100460001c0007000470a70003f0a10003f8a3001c
:1004700013003a006509b100100032000900350090
:100480006928e10002003500010028000000050095
:1004900000004000818048008502e900fcff3a002e
:1004a00000000600f88f4200050035008100d100f1
:1004b0000080d3008502e800fcff3a00000006003f
:1004c0008000eb00000005004f89de00820178000b
:1004d00097023700c70ade00f107b200f50fb2003d
:1004e00008003200e1cf4200020032000170a0009b
:1004f00024000500810f700001003200040805008f
:1005000044000500810f700002003a00140005004d
:100510008502e9000000400081c04800fcff3b006c
:100520000170a00024000500889fbe008a9fbe00c5
:100530008c9fbe001b0020000202be0005866800e2
:1005400006002800060666004709de00f20fb2002a
:10055000820032000243e80080003200c729de003a
:10056000f30fb2007d0032000343e8007b0032004d
:10057000f107b2000170a000f507b2000570a000fd
:10058000c708dd004903de00868070004700dd00fb
:10059000c72add004923de00868272004722dd0083
:1005a0000305510004035000858358000300310007
:1005b00000004000818048000a05e9008c1f780097
:1005c0008a9fbe000400500085805800040242004b
:1005d00085824a0000004000818048000005eb0051
:1005e0000004be006033b8000406be000d48e10000
:1005f00056003100110009004dccd8000c01b800a4
:100600000d02b8008481410060824a008283530059
:1006100003045c0084845c0060055d000a00e00067
:1006200025003a00800578000d40e10049003100c6
:100630008800780007007800110009004d88d80074
:100640000c01b8000d02b8008481410060824a00ac
:100650006003110083835b0004045c00e0845c00a1
:100660000900e00021003a004f01be000300e00055
:100670002b003200e3016000070673008c817100db
:1006800001003200640070004200de004e5edd00ba
:100690000c007000c258de0001e0a00083010700da
:1006a000cf017800818071004f06be004f05be006b
:1006b0004f04be00000006008c8343000d044c0074
:1006c000e0844c0060054d000000e9000a00e000f5
:1006d000d4ff32008c8343000d044c00e0844c00b6
:1006e00060054d000000e900ceff37000c03430019
:1006f0008d834b0060044c00e0844c000000e90056
:100700000900e000d8ff32000c0343008d834b004a
:1007100060044c00e0844c000000e900d2ff370088
:100720004200de004e5edd000c007000c258de00ac
:1007300001e0a000cf0178000300e000daff320002
:1007400060001000e0801800d7ff3700f0ff2f0096
:10075000aaff3700f0ff2f00b9ff37000404be00e6
:100760002f010700870678000004fd008104fd00ca
:100770002b010700078366000678a3000300320000
:100780000960a7000800be002c0037000d78a30008
:10079000020032000800be00280037000778a300de
:1007a00026003a0001f0a10009f0a1000668a300ac
:1007b00003003200f1ff2700f0ff2f00baff3700df
:1007c0000d68a300030032000800be008c8070009a
:1007d000b5ff37000768a30007003a000648a300ea
:1007e00003003200f1ff2700f0ff2f00aeff3700bb
:1007f0000d48a300030032006000b8008c80700038
:10080000a9ff37000748a3000400320001f82700c1
:10081000000020008c807000a3ff370076010700e5
:100820000004fd008104fd0002057800720107004c
:100830000802be008a01780059ff37000160a0005d
:10084000120220000240880097ff37000100e000fc
:10085000120032000500e00010003200889fbe0048
:100860008a9fbe008c9fbe000006eb0001f8a3002b
:100870000300320060001000e08018000cf0a000bf
:1008800005f8a3000300320060021200e0821a00a3
:100890000cf0a2008005eb0041ff37006000b800bb
:1008a00002000500038368000700280007036300b7
:1008b000470ade000480a100c71ade000580a100ff
:1008c000f70f20000720e100420032000728e10076
:1008d00040003200889fbe008a9fbe008c1f7800b7
:1008e000f107b200f307b2000400e0006400320038
:1008f0000170a0000500e000680032000370a00055
:1009000085054200eb07b1000204b8000302b800fd
:100910008484440060854a00020ab800848444004c
:100920000a854a00030ab8000405450004003300a4
:100930000804d0008984d2000a85d2008b05e90022
:100940006158e1003d0035000210200009016100fe
:100950000308200089816100f70720008783640075
:1009600008867300c84cde00c853dd00878474001d
:100970004855de000300e0000600320082037600e6
:10098000040032008904e80060054d000a88a300d5
:100990000c003a00f70f20000758e10044003d002a
:1009a0000a70a100c75ddd000a8575008a0073002a
:1009b000090078004f0678004f05be004f04be00c6
:1009c000000006000a05d1008984d3008b05e800e9
:1009d000f0ff3700881f78000604780090000700b9
:1009e000070278000001fd008101fd008c00070076
:1009f00087027800850372000778a30005003200a3
:100a00000001fd008101fd009f0007004f047800f8
:100a100000000600850372000748a30003003200af
:100a2000f0ff2f00f1ff2700f8ff37000000200043
:100a300001f8270088807000f4ff370088017800f3
:100a40004848dd00808171004848de00c850dd0064
:100a500001007000c850de00060478000b01780029
:100a60001600070088807000d2ff37000500e00004
:100a700005003200170020003a0007009dff3700f4
:100a800081037000f9ff3a00860078004f06780075
:100a90004f05be004f04be00000005008303710037
:100aa000f9ff3200270020002e00070094ff3700d6
:100ab00001f8270086807000f4ff37000100e00095
:100ac00026003200610111007810e10023003c0093
:100ad0006022b8007010e100040035008002780048
:100ae000010078008000eb00700151000200e0007e
:100af0000900340070031100062add00822ade009e
:100b00008603dd00878272000200de00860bdd00b6
:100b1000070070008208de0084817100f4ff270066
:100b200004826200848171000400280084826200d3
:100b30006102600005f0a60000000600048271005a
:100b4000070032000000e800e080480000000600d6
:100b50000002be006000b800efff37006000b80080
:100b600000000600889fbe000004eb006138e10031
:100b700016003a000100e00008003a00c800de005c
:100b80004800dd00880020000100e00003003a007a
:100b9000c800de004800dd00680444008184cf0006
:100ba000e9845400060034008908dd00f083140055
:100bb0008703de00878070000900dd00090444001f
:100bc000610214004f04be00000006000300e000b4
:100bd00008003a00c811de004811dd00880020003e
:100be0000300e00003003a00c811de004811dd00f8
:100bf000680444008384cf00e98454000600340074
:100c00008919dd00f08314008713de0087817100ed
:100c10000911dd0009044400e1021400e9ff370076
:100c20002700200001f0a70017002000470bde007e
:100c3000f60fb200040032000643e8000a0032005a
:100c40004702b3000000060001037800f607b20077
:100c50000603700002003a000703b300000006001c
:100c60008702b3000000060001037800f607b20017
:100c700006037000020032000770a00000000600aa
:100c80000760a000000006000478a3000400320002
:100c90000578a300030032000168a30001003a00b8
:100ca0000200be000160a00000000600810170008b
:100cb000270032008002eb0001f8a300030032009d
:100cc00060001000e080180015002000f4072000ec
:100cd0000202420020003400f70320008703600076
:100ce00006042000000363000208200000016100e8
:100cf0004700de00c909dd0000807100c708de0082
:100d00000600e00008003200870371000600320090
:100d10001000b0000180b0000188a3000200320082
:100d2000c108de000402e800f107b200f30f200062
:100d30000320e10003003d004722dd008100720036
:100d40002900370001f827000000eb0026003700db
:100d50006000b80000000600680212007f20e10079
:100d6000020034006000b8001f0037006011b800b6
:100d70007020e10004003500800178000100780057
:100d80008000eb00700252000400e0000900340013
:100d9000f00312000719dd008419de000703dd00ef
:100da000868171000400de00070bdd000600700084
:100db0008408de00f7ff2700838363008703710048
:100dc0000600280003036300070032000700e0006c
:100dd00003003a00610160000281730002003200ea
:100de0001000b0000180b0000500a6000000060061
:100df00001f0a000000006004f0ade004709de00f7
:100e0000f107b200f20fb2000b003200f207b1009e
:100e10000170a000c708dd00c901de0083807000fa
:100e20004700dd000400a60000000600600010007e
:100e3000e080180000000600810f700001003a00f9
:100e4000000006008182cf000500e00010003e0097
:100e50008082cf00ee8242007028e1000400390059
:100e600007003e00800078000000eb000e00370015
:100e7000708312008600de000500dd000a003700e6
:100e8000708352008600dd000000eb000600370092
:100e9000e28252008508dd00708312000603de0046
:100ea000868070000500dd007507b0000501ea00ce
:100eb0000400a6000000060060001000e08018009a
:100ec00000000600889fbe008a9fbe00841f780035
:100ed0007c0007004f00780011003300f0ff2f0066
:100ee000838f6c0006003b00040565000a00a70024
:100ef0000800370009f0a6001000200008003700a5
:100f0000820f5400838f5c00030039001000200022
:100f100001003e000000200009f0a7000000ea00e8
:100f20004f05be004f04be000000e00000000600b8
:100f3000881f7800030478000300e00007003d00ec
:100f400060001000e080180060011900e0811900c5
:100f500002003b0001f02d000300370004000700f1
:100f600008f0a70001f0a0004f0478000000060080
:100f7000889fbe008a9fbe0000827000040271003c
:100f800004827100260032000004be000200be0090
:100f90006011b8006b092000950220000182cf008b
:100fa0000a0039000541b1000082cf000700390076
:100fb0000541b1000982cf00040039000541b100ac
:100fc0000882cf00010039000541b10005425200fe
:100fd000120032000a003b0082817100610164004e
:100fe0008100d1000080d3008984d3000884d3001d
:100ff0008b05e8000442e800f7ff3a0007003700dd
:101000000804440089844c000000480081804800a6
:101010008b05e9000442e900f9ff3a0003000700ec
:101020004f05be004f04be000000060081002000f6
:10103000618055000b003d000b00200061fe2f0079
:101040000100e1001d003400828171006101640033
:101050008904d1000884d3000000e800faff3a00b8
:101060007100200061006400030070000200600055
:101070000900320061044400e0844c000988a500a6
:10108000050032008b05e8006808e10002003a0024
:101090008904d1000884d300f20f20000258e10037
:1010a00005003d00c75ddd00f907b20089807500cd
:1010b00008007800000006000bf827008b0078007d
:1010c000000005000004be0002fd07000003be0092
:1010d0000405be000200be00fefc0700844f750040
:0410e0000000060006
:020000040000fa
:1010e4001200fa00881f780070079800010f98001a
:1010f4000e089000cf80de00f2fc07000200200002
:10110400a347240007fd0700100798002107980053
:1011140000002000119e2400300798004107980029
:101124001e019000ae0190003e009000ce009000a1
:10113400dbfd070050079800610798000000eb00f2
:10114400000f78007e009000e10f50000300320091
:10115400e20f50006e003200da0037000021ef0089
:1011640018c0b30002f02f00f37724005e00900053
:10117400ee009000b4fc07000000e0000100340021
:101184000044eb000804e00007003200210880005e
:10119400f0fc2f0000806000200888001000200070
:1011a400000f78004e00370002f02f00f377240080
:1011b4005e009000ee009000dafc070018c0b30057
:1011c4000200200003f82300a1fc07000000e00057
:1011d40001003c000044eb000804e000160032006b
:1011e40002f02f00f37724005e009000ee009000e0
:1011f400ccfc070018c0b300020020000310240038
:1012040091fc07000000e000010034000044eb0002
:101214000804e0000800320021088000f0fc2f00e0
:10122400008060000040a0002008880080002000aa
:10123400000f78002a00370002f02f00f377240013
:101244005e009000ee009000b6fc070018c0b300ea
:1012540002002000031024007dfc07000000e000d1
:1012640001003c000044eb000804e00016003200da
:1012740002f02f00f37724005e009000ee0090004f
:10128400a8fc070018c0b3000200200003282400b3
:101294006dfc07000000e000010034000044eb0096
:1012a4000804e0000800320021088000f0fc2f0050
:1012b400008060000050a000200888000004200086
:1012c400000f78000600370021088000000320008a
:1012d400010070002008880000102000000f780032
:1012e4001e007800cf80de0076fc07000001be00ff
:1012f4005e009000ee0090008afc070056fc070098
:10130400000078001008880005e1a8006d0037008f
:101314000621ef0018c0b30002f02f00f377240079
:101324005e009000ee00900047fc07000000e00023
:10133400010034000044eb000804e0000700320020
:1013440081088000f0fc2f00008060008008880085
:1013540010002000000f78004e00370002f02f002c
:10136400f37724005e009000ee0090006dfc07000f
:1013740018c0b3000200200003f8230034fc070067
:101384000000e00001003c000044eb000804e00021
:101394001600320002f02f00f37724005e00900064
:1013a400ee0090005ffc070018c0b30002002000ac
:1013b4000310240024fc07000000e00001003400b6
:1013c4000044eb000804e0000800320081088000bb
:1013d400f0fc2f00008060000040a000800888001e
:1013e40080002000000f78002a00370002f02f0050
:1013f400f37724005e009000ee00900049fc0700a3
:1014040018c0b300020020000310240010fc0700e1
:101414000000e00001003c000044eb000804e00090
:101424001600320002f02f00f37724005e009000d3
:10143400ee0090003bfc070018c0b300020020003f
:101444000328240000fc07000000e0000100340031
:101454000044eb000804e00008003200810880002a
:10146400f0fc2f00008060000050a000800888007d
:1014740000042000000f7800060037008108800077
:101484000003200001007000800888000010200084
:10149400000f78001e007800cf80de0009fc0700f2
:1014a4000001be005e009000ee0090001dfc0700ed
:1014b400e9fb0700000078006008880011e1a8003b
:1014c400000000004f0478000080fa0000000600cd
:1014d4000200fa00000f78001e007800e10f5000af
:1014e40003003200e20f5000080032000f00370002
:1014f4000000000020048000680060000000e0009c
:10150400fcff32008460a9000800370000000000de
:101514002104800000042000008060000000e0003e
:10152400fbff320084c0a900000000000080fa0024
:10153400000006000400fa00000f7800110798006c
:101544001e007800e10f500003003200e20f50004b
:10155400070032000c0037009e00900010002000ad
:10156400dffe070010002000d9ff07000600370047
:101574009e00900020002000d9fe070020002000db
:10158400d3ff0700000000000080fa0000000600fe
:101594000200fa0010002000000f78001000200064
:1015a40040158800c602a900c622a9001e007800c2
:1015b4000000e00003003200e10f5000160032008a
:1015c400280037008c60a800a10f20001000200024
:1015d400c3fe0700411f200020002000c0fe0700ba
:1015e40020002000baff0700501680000040780059
:1015f400614060000004a200614060000080fb00c4
:1016040061006000511680000100a100010070001b
:1016140050168800f2ff3700d902a8008c00a800f9
:10162400411f200020002000adfe07002000200004
:10163400a7ff07005016800000407800614060005a
:101644000004a200614060000080fb0061006000b3
:10165400511680000100a10001007000501688009e
:10166400f2ff37000000eb000080fa0000000600e3
:020000040000fa
:10167400000800000200000000000000000000005c
:020000040000fa
:0200000401f009
:04000000f4bf000049
:020000040000fa
:0200000401f009
:04000400ff7f00007a
:020000040000fa
:0200000401f009
:04000800ffff0000f6
:020000040000fa
:0200000401f009
:04001400ffffff00eb
:020000040000fa
:0200000401f009
:04001800ffff0000e6
:00000001FF
